:100000002AC1000058C1000056C1000054C10000C0
:1000100052C1000050C100004EC100004CC10000A0
:100020004AC10000E7C40000E5C40000E3C40000CA
:1000300042C1000040C100003EC100003CC10000C0
:100040003AC1000038C1000036C1000034C10000D0
:1000500032C1000030C100002EC1000081C4000088
:100060002AC1000056C300002BC3000024C10000B9
:1000700022C1000020C100001EC100001CC1000000
:100080001AC1000018C1000016C1000014C1000010
:1000900012C1000010C100000EC100000CC1000020
:1000A0000AC1000008C1000006C1000004C1000030
:1000B00002C1000000C10000FEC00000FCC0000042
:1000C000FAC00000F8C00000F6C00000F4C0000054
:1000D000F2C00000F0C00000EEC00000ECC0000064
:1000E000EAC00000EE03F103E003E403E8032804A0
:1000F000F503F903FF03030407040D0411041504B9
:1001000028041B041F0423040000210024002700EE
:100110002A002D0030003300010100000401070116
:100120000A0100000A0B02090C0D0E080703040166
:1001300000000000000000000000000000000000BF
:10014000000000000000000000000000000012118C
:10015000100000000000000000000000000000008F
:10016000000000000000000041542B434D47523D69
:100170000041542B434D47463D310D0061742B63C4
:100180006D6764613D2264656C20616C6C220A0DB0
:100190000000002200250028002B002E0031003432
:1001A0000002010000050108010B010000200023EE
:1001B00000260029002C002F00320000010000035F
:1001C00001060109010505050507050808080802DB
:1001D0000202020A0A0808040404040101010101E0
:1001E0000101010303030303030303040707070CCF
:1001F0000C0C0C0C0C0C0C02020202060606060685
:100200000606060B0B0B0B0B0B0B0B010210202031
:10021000080810204010204080020102010804025A
:1002200001010204081020408080402010080402D0
:100230000180040201804020100804020108040229
:10024000010102040810204080010204081020402F
:100250008000A90B910B11241FBECFEFD1E2DEBFAE
:10026000CDBF00E00CBF12E0A0E0B2E0EEEDF0E2A6
:1002700000E00BBF02C007900D92AC3EB107D9F76A
:1002800024E0ACEEB2E001C01D92AC31B207E1F760
:1002900011E0CAE2D1E000E006C021970109802FF9
:1002A000FE010E947D0CC932D10780E00807A9F742
:1002B00076D70C945E10A4CECF92DF92EF92FF928D
:1002C0000F931F93CF93DF936C017A018B01C0E0F2
:1002D000D0E0CE15DF0589F0D8016D918D01D601F2
:1002E000ED91FC910190F081E02DC6011995892BCB
:1002F00011F47E0102C02196ECCFC701DF91CF91AE
:100300001F910F91FF90EF90DF90CF900895089587
:10031000FC01918D828D981761F0828DDF01A80F0D
:10032000B11D5D968C91928D9F5F9F73928F90E02F
:1003300008958FEF9FEF0895FC01918D828D98179E
:1003400031F0828DE80FF11D858D90E008958FEFDB
:100350009FEF0895FC01918D228D892F90E0805CA4
:100360009F4F821B91098F73992708958AE393E029
:10037000F1DF21E0892B09F420E0822F0895FC01B0
:10038000848DDF01A80FB11DA35ABF4F2C91848D1E
:1003900090E001968F739927848FA689B7892C9353
:1003A000A089B1898C9180648C93938D848D9813EE
:1003B00006C00288F389E02D80818F7D80830895B7
:1003C000EF92FF920F931F93CF93DF93EC0181E0A5
:1003D000888F9B8D8C8D981305C0E889F989808161
:1003E00085FD23C0F62E0B8D10E00F5F1F4F0F739E
:1003F0001127E02E8C8DE8120BC00FB607FCFACF48
:10040000E889F989808185FFF5CFCE01B8DFF2CF89
:100410008B8DFE01E80FF11DE35AFF4FF0820B8F29
:10042000EA89FB898081806207C0EE89FF89608349
:10043000E889F98980818064808381E090E0DF91A0
:10044000CF911F910F91FF90EF900895CF93DF937D
:10045000EC01888D8823C1F0EA89FB89808185FDC4
:1004600005C0A889B9898C9186FD0EC00FB607FC1E
:10047000F5CF808185FFF2CFA889B9898C9185FF5E
:10048000EDCFCE017CDFE8CFDF91CF91089580E002
:1004900090E0892B19F06ADF811125C080E090E09F
:1004A000892B41F080E090E0892B21F00E94000030
:1004B00081111CC080E090E0892B41F080E090E049
:1004C000892B21F00E940000811113C080E090E090
:1004D000892BA1F080E090E0892B81F00E94000040
:1004E00081110AC008950E940000D8CF0E94000028
:1004F000E1CF0E940000EACF0C94000008953FB7BE
:10050000F89480912D0390912E03A0912F03B09128
:10051000300326B5A89B05C02F3F19F00196A11DF9
:10052000B11D3FBFBA2FA92F982F8827820F911D89
:10053000A11DB11DBC01CD0142E0660F771F881FD0
:10054000991F4A95D1F708952091330330913403D0
:100550002817390771F4909131038091320398176D
:1005600041F0E0913103F0E0E451FD4F808190E0F3
:1005700008958FEF9FEF089508951F93CF93DF9312
:10058000DC015C962D913C915D972115310539F484
:1005900081E090E013969C938E9312973DC0519604
:1005A000ED91FC91529750969C915097892F809590
:1005B0001FB75E964C915E9741FB772770F941FD1E
:1005C0006095F8944081772311F0492B01C04823AE
:1005D0004083E9012197F1F748E0508160FF02C0B4
:1005E000592B01C058235083E9012197F1F76695F3
:1005F000415099F7772321F090818923808303C0AC
:100600008081982B90831FBF5C968D919C915D9704
:100610000197F1F721E030E0C901DF91CF911F91FF
:10062000089520913303309134032817390769F472
:10063000809132032091310390E0805C9F4F821BB8
:10064000910960E470E00C946A0C80E090E00895F9
:10065000209133033091340328173907B9F490916E
:10066000310380913203981789F0E0913103F0E073
:10067000E451FD4F80812091310330E02F5F3F4FE7
:100680002F7333272093310390E008958FEF9FEF6E
:1006900008950E94AA0E6115710579F0FB01019081
:1006A0000020E9F73197AF01461B570BDC01ED91B4
:1006B000FC910280F381E02D199480E090E0089590
:1006C0001F920F920FB60F9211240BB60F922F9319
:1006D0003F934F935F936F937F938F939F93AF93CA
:1006E000BF93EF93FF938AE393E049DEFF91EF918D
:1006F000BF91AF919F918F917F916F915F914F913A
:100700003F912F910F900BBE0F900FBE0F901F9037
:1007100018951F920F920FB60F9211240BB60F92DD
:100720002F938F939F93EF93FF93E0914A03F09160
:100730004B038081E0915003F091510382FD12C080
:100740009081809153038F5F8F73209154038217A0
:1007500051F0E0915303F0E0E65CFC4F958F8093FD
:10076000530301C08081FF91EF919F918F912F9151
:100770000F900BBE0F900FBE0F901F901895362F45
:1007800090E0FC01EE5DFE4F4491FC01E55FFD4F02
:100790002491FC01EB53FE4F9491992309F46BC013
:1007A000442309F455C050E0FA013197E231F105D4
:1007B00008F04EC08827EE58FF4F8F4F0C947D0CE9
:1007C000809180008F7707C0809180008F7D03C06B
:1007D00080918000877F809380003AC084B58F77B6
:1007E00002C084B58F7D84BD33C08091B0008F7707
:1007F00003C08091B0008F7D8093B00029C08091AC
:1008000090008F7707C0809190008F7D03C080910A
:100810009000877F809390001BC08091A0008F770D
:1008200007C08091A0008F7D03C08091A000877FCA
:100830008093A0000DC0809120018F7707C0809128
:1008400020018F7D03C080912001877F809320014C
:10085000E92FF0E0EE0FFF1FEF56FE4FA591B49188
:100860008FB7F894EC91311103C020952E2301C06D
:100870002E2B2C938FBF0895CF93DF9390E0FC0134
:10088000E55FFD4F2491FC01EB53FE4F84918823DB
:1008900061F190E0880F991FFC01E85FFE4FC59160
:1008A000D491FC01EF56FE4FA591B491611109C09E
:1008B0009FB7F8948881209582238883EC912E231A
:1008C0000BC0623061F49FB7F8943881822F809515
:1008D00083238883EC912E2B2C939FBF06C08FB768
:1008E000F894E8812E2B28838FBFDF91CF91089554
:1008F0008F929F92AF92BF92CF92DF92EF92FF9230
:100900006B017C01FCDD4B015C01C114D104E104ED
:10091000F104E9F0F4DDDC01CB0188199909AA0999
:10092000BB09883E9340A105B10578F321E0C21AC6
:10093000D108E108F10888EE880E83E0981EA11C1A
:10094000B11CC114D104E104F10421F7DECFFF9002
:10095000EF90DF90CF90BF90AF909F908F900895D1
:100960001F920F920FB60F9211242F933F938F93E4
:100970009F93AF93BF938091360390913703A091DB
:100980003803B091390330912C0323E0230F2D3726
:1009900020F40196A11DB11D05C026E8230F029683
:1009A000A11DB11D20932C03809336039093370330
:1009B000A0933803B093390380912D0390912E03B7
:1009C000A0912F03B09130030196A11DB11D80931A
:1009D0002D0390932E03A0932F03B0933003BF9168
:1009E000AF919F918F913F912F910F900FBE0F90DC
:1009F0001F9018951F920F920FB60F9211240BB6ED
:100A00000F922F933F934F935F936F937F938F93A7
:100A10009F93AF93BF93EF93FF93E0913303F091D4
:100A20003403309709F451C0968DA685B785858526
:100A300091FF04C09C91892329F447C09C9189238C
:100A400009F043C0A389B4899C9185898095892345
:100A50008C93868997890197F1F7608D718DA685B2
:100A6000B785558538E020E0CB010197F1F7822F5B
:100A700090E095958795282F4C91452309F02068A3
:100A8000315091F7868D81FD20958091320390E061
:100A900001968F73992730913103381749F0A0914F
:100AA0003203B0E0A451BD4F2C938093320303C0B6
:100AB000868D8160868F828D938D0197F1F7A38952
:100AC000B4899C918589892B8C93FF91EF91BF917B
:100AD000AF919F918F917F916F915F914F913F91D6
:100AE0002F910F900BBE0F900FBE0F901F90189577
:100AF000E0913303F0913403E817F90769F4A3890F
:100B0000B4899C918589809589238C9310923403B4
:100B10001092330381E0089580E008952FB7F89490
:100B20008091360390913703A0913803B091390337
:100B30002FBF8093FF0390930004A0930104B09310
:100B40000204E091F703F091F8030680F781E02DAD
:100B500087EF93E0199597FF26C02FB7F8948091FF
:100B6000360390913703A0913803B09139032FBF1A
:100B70004091FF03509100046091010470910204C0
:100B8000841B950BA60BB70B4091FB035091FC0304
:100B90006091FD037091FE0384179507A607B707C0
:100BA00080F28FEF9FEF08950F931F93CF93DF9302
:100BB0008C01C0E0D0E0F801EC0FFD1F64916623CA
:100BC00071F0E091F703F091F8030190F081E02DCE
:100BD00087EF93E01995892B11F02196ECCFCE0188
:100BE000DF91CF911F910F910895CF93DF93EC0187
:100BF00088819981009709F031D7198218821D8266
:100C00001C821B821A82DF91CF910895CF93DF93CC
:100C1000BC018AE393E03FDDEC0169EC72E08AE31A
:100C200093E039DD8C0F9D1FDF91CF910895CF9315
:100C3000DF93FC0144815581608171818AE393E0F7
:100C40003BDBEC0169EC72E08AE393E024DD8C0F7E
:100C50009D1FDF91CF910895CF93DF93FC012481F5
:100C600035814217530780F4FB01DC01CD91DC9103
:100C700060817181CE01840F951F0E94C70E00977D
:100C800019F08C1B9D0B02C08FEF9FEFDF91CF916E
:100C900008950F931F93CF93DF938C01EB01FC0119
:100CA000808191810097A9F0688179816115710532
:100CB00079F0428153812C813D814217530740F0E6
:100CC0000E94C00E8C819D81F8019583848312C09F
:100CD000C5D688819981F801918380838A819B811F
:100CE000938382838C819D8195838483198218826A
:100CF0001B821A821D821C82DF91CF911F910F915E
:100D000008950F931F93CF93DF93EC01888199810E
:100D1000009729F02A813B812617370780F48B0141
:100D20006F5F7F4F33D7009761F0998388831B8370
:100D30000A832C813D81232B11F4FC01108281E078
:100D400001C080E0DF91CF911F910F910895EF9244
:100D5000FF920F931F93CF93DF93EC01FB018481EC
:100D60009581E080F1800C811D81E114F104A1F0F6
:100D70000097A1F0080F191FB801CE01C2DF882328
:100D800059F0288139818C819D81B701820F931F91
:100D9000F7D71D830C8302C0CE0127DFCE01DF9180
:100DA000CF911F910F91FF90EF900895EF92FF92D6
:100DB0000F931F93CF93DF931F921F92CDB7DEB790
:100DC0008C0169831A82FC01E480F580FFEFEF1A41
:100DD000FF0AB70196DF882379F0F801208131817D
:100DE00084819581BE016F5F7F4F820F931FC8D7AB
:100DF000F801F582E48281E00F900F90DF91CF91AE
:100E00001F910F91FF90EF900895EF92FF920F9333
:100E10001F93CF93DF93EC017B018A01BA0171DF4D
:100E2000811103C0CE01E1DE06C01D830C83B70132
:100E300088819981A5D7CE01DF91CF911F910F9124
:100E4000FF90EF900895FC018081918107C6FB011E
:100E5000DC0111961C921E9213961C921E92129700
:100E600015961C921E9214978617970741F0608181
:100E700071816115710519F044815581C6CF0895BE
:100E8000FC01118210821382128215821482611574
:100E9000710549F0FB0101900020E9F73197AF019E
:100EA000461B570BB2CF0895CF93DF93EC011092FE
:100EB000F0031092EF0387EF93E0B3DB892BB1F4DB
:100EC0008091EF039091F003803E9E427CF46DE0B0
:100ED00070E080E090E00CDD8091EF039091F003F2
:100EE00001969093F0038093EF03E5CF87EF93E0B3
:100EF00098DB892B59F06BEC72E0CE01C1DF0EDE7E
:100F000097FD04C0682FCE0151DFF9CFCE01DF91EC
:100F1000CF9108950F931F93CF93DF9300D000D00C
:100F2000CDB7DEB78CE791E03FDECE010196BCDFA6
:100F3000BE016F5F7F4F81EF93E0ABDECE01019684
:100F400082DF64EE72E0CE0101969ADF40E050E06D
:100F5000BE016F5F7F4F81EF93E07EDE8C01CE019B
:100F6000019671DF81E00F3F1F4F09F480E0269664
:100F70000FB6F894DEBF0FBECDBFDF91CF911F91AA
:100F80000F910895BF92CF92DF92EF92FF920F934D
:100F90001F93CF93DF937C016B01EA018901241732
:100FA000350720F48D2FE901042F182F6BEC72E028
:100FB000C70166DFD60114968D919C911597C817CD
:100FC000D90738F58017910708F48C01D601ED9107
:100FD000FC911197E00FF11FB08010824D915C9150
:100FE000BA016C0F7D1F6115710559F0FB0101906D
:100FF0000020E9F73197AF01461B570BC70105DF0A
:1010000002C0C701F2DDD601ED91FC91E00FF11FA6
:10101000B082C701DF91CF911F910F91FF90EF90A8
:10102000DF90CF90BF9008954F925F926F927F9222
:10103000EF92FF920F931F93CF93DF93CDB7DEB75D
:10104000A1970FB6F894DEBF0FBECDBF7C01FA01A9
:10105000CB0119A2223008F42AE08E010F5D1F4F48
:10106000422E512C612C712CBF01A3019201EBD7B0
:10107000F901CA01015011096A3014F4605D01C020
:10108000695CD8016C93232B242B252B69F7B801BD
:10109000C70101DBA1960FB6F894DEBF0FBECDBF2E
:1010A000DF91CF911F910F91FF90EF907F906F9004
:1010B0005F904F900895EF92FF920F931F93CF93FD
:1010C000DF93CDB7DEB72C970FB6F894DEBF0FBE17
:1010D000CDBF8C0181E791E067DD67EE72E0CE0164
:1010E0000196CEDECE010796DFDE40E050E0BE0185
:1010F0006F5F7F4FCE010796AFDD7C01CE01079673
:10110000A2DECE0101969FDEEF20E09409F035C00B
:1011100088E691E049DD2AE041E050E060E070E0DF
:1011200087EF93E081DF6AEE72E087EF93E0B3DA56
:10113000CE010196B9DEBE016F5F7F4F81EF93E074
:10114000A8DDCE0101967FDE63E872E0CE01019654
:1011500097DE40E050E0BE016F5F7F4F81EF93E08C
:101160007BDD7C01CE0101966EDEEF20E09429F05C
:1011700061EF73E0C8016BDE04C06BEC72E0C80184
:101180007FDEC8012C960FB6F894DEBF0FBECDBF30
:10119000DF91CF911F910F91FF90EF900895CF9322
:1011A000DF93CDB7DEB762970FB6F894DEBF0FBE00
:1011B000CDBF789484B5826084BD84B5816084BDE0
:1011C00085B5826085BD85B5816085BD80916E00E5
:1011D000816080936E001092810080918100826016
:1011E0008093810080918100816080938100809153
:1011F00080008160809380008091B1008460809342
:10120000B1008091B00081608093B0008091910026
:101210008260809391008091910081608093910021
:10122000809190008160809390008091A100826005
:101230008093A1008091A10081608093A1008091A2
:10124000A00081608093A000809121018260809342
:1012500021018091210181608093210180912001F1
:1012600081608093200180917A00846080937A006D
:1012700080917A00826080937A0080917A00816008
:1012800080937A0080917A00806880937A0010922F
:10129000C100E0914A03F0914B0382E08083E0912A
:1012A0004603F09147031082E0914803F09149030F
:1012B0008FEC808310925203E0914E03F0914F0324
:1012C00086E08083E0914C03F0914D038081806142
:1012D0008083E0914C03F0914D038081886080838E
:1012E000E0914C03F0914D03808180688083E09110
:1012F0004C03F0914D0380818F7D808386E292E0E4
:1013000085DC1092120410921104109210041092B5
:101310000F0410920E0410920D048DE991E0909349
:101320001404809313048091030496EF980F943073
:1013300048F02EEC280F243028F022EC280F28301B
:1013400008F06EC02DEB30E030930E0420930D04B6
:101350002BE931E03093100420930F042CE231E0AC
:101360003093120420931104943060F02EEC280F77
:10137000243040F022EC280F283008F4CAC1A0E045
:10138000B0E0C9C1A8E6B0E0E8E6F0E02081943022
:1013900018F08E53883010F081E001C084E0822B79
:1013A0008C938091030496EF980F943058F02EECB4
:1013B000280F243038F022EC280F283030F020E0BD
:1013C00030E005C02BE630E002C02DE630E030937F
:1013D0000B0420930A04943010F49AEF0BC082336C
:1013E00081F0833381F0843381F092EC980F983050
:1013F00070F492EC980F81E001C0880F9A95EAF79B
:1014000007C088E005C084E003C082E001C081E03D
:1014100080930C0480911304909114040197F1F7C8
:101420008091110490911204892B19F1809133035A
:101430009091340323E0873F9207D9F0009709F099
:1014400057DB809115048E7F809315041092320330
:101450001092310387EF93E090933403809333032A
:10146000E0910A04F0910B04908180910C04892B87
:1014700080836DE081E000DA6FEF70E081EF93E050
:1014800040DC6CE272E0CE010D96FADCE988FA8865
:101490006BEC72E0CE010796F3DC40E050E04E15B5
:1014A0005F05C8F48A010E5F1F4F9801BE01635F9C
:1014B0007F4FCE01019666DD40E150E060E070E0D4
:1014C00089819A817ED4CE01079670DCCE01019687
:1014D000BADCA801E4CFCE010796A9DBCE010796BE
:1014E000B2DCCE010D96AFDC15DD809335038DE7C0
:1014F00092E08CDBCE010196DEDDBE016F5F7F4F97
:1015000089EE93E0C6DBCE0101969DDC8091E90374
:101510009091EA03892B09F4C4C08091ED03909166
:10152000EE03892B09F4BDC0CE010196C4DDBE01D6
:101530006F5F7F4F81EF93E0ACDBCE01019683DCE0
:101540004091F5035091F60360E070E02AE08AE3F1
:1015500093E06ADD69EC72E08AE393E09CD88091C5
:10156000F5039091F6030B9708F4A3C062E872E0CC
:10157000CE01019685DC40E050E0BE016F5F7F4FF9
:1015800081EF93E069DB8C01CE0101965CDC69E8B8
:1015900072E0CE01019674DCA80155274F5F5F4FC2
:1015A000BE016F5F7F4F81EF93E056DB8C01CE0170
:1015B000019649DC112769E872E0CE01019660DCF2
:1015C000A8014C5F5F4FBE016F5F7F4F81EF93E0DB
:1015D00043DBA8014D5F5F4F9C0161EF73E0CE01DB
:1015E0000796D0DCCE0101962EDCBE01695F7F4FED
:1015F00083EE93E04EDBCE01079625DC6DE872E0CA
:10160000CE0101963DDC63EE73E0CE0101969FDBD7
:101610000EDBCE01019617DC69E972E0CE0101967E
:101620002FDC69EE73E0CE01019691DB00DBCE0189
:10163000019609DC63EE73E0CE01019608DCED80D3
:10164000FE80C980DA8007ED13E033E0033E130724
:1016500009F035C010E0CE010196F5DB112309F445
:101660004AC069EE73E0CE010796F1DB63EA72E0EF
:10167000CE01019605DC40E050E0BE016F5F7F4F78
:10168000CE010796E9DA8C01CE010196DCDB0F3F33
:101690001F4F19F08BEA92E0B9DACE010796D3DB3F
:1016A00039DC64EF71E080E090E022D90E944702CB
:1016B0001ECF6BEC72E0CE010796E2DB96CFF8010D
:1016C00084819581E816F90688F0C114D10471F07F
:1016D000608171816115710549F09701281B390BF3
:1016E000C9018C0D9D1D43D3892B19F00A5F1F4F33
:1016F000ACCF11E0B0CF64EB72E0CE010196C0DB5D
:1017000063EE73E0CE01019622DB91DACE01019601
:10171000C6CFA8E6B0E0283008F436CEE0E0F0E02E
:1017200035CE8DED93E08FDB87ED93E08CDB83EEA0
:1017300093E089DB89EE93E086DB81EF93E083DB46
:101740008AE192E09093F8038093F70387EF93E0A8
:10175000CFC910923D0310923C0388EE93E0A0E0C5
:10176000B0E080933E0390933F03A0934003B09377
:1017700041032AE032E030933B0320933A0325EC07
:1017800030E0309347032093460324EC30E030935D
:1017900049032093480320EC30E030934B0320931F
:1017A0004A0321EC30E030934D0320934C0322ECAC
:1017B00030E030934F0320934E0326EC30E030931B
:1017C000510320935003109253031092540310922C
:1017D0005503109256031092FA031092F903809366
:1017E000FB039093FC03A093FD03B093FE038AE1F7
:1017F00092E09093F8038093F70310920E041092F6
:101800000D041092100410920F0410921204109202
:1018100011041092140410921304609115046E7F49
:101820006D7F609315046695617081E068278BE099
:101830000E94BF0361E08BE01FD8E6E1F2E0E49193
:10184000E0930704E0EDF1E0E491F0E0EE0FFF1F1C
:10185000EF56FE4F8591949190930904809308046C
:1018600060E08AE009D88091150481FD04C061E040
:101870008AE00E94BF038AE080930304E5E1F2E07E
:10188000E491E0930404EFECF1E0E491F0E0EE0F7A
:10189000FF1FE555FE4F8591949190930604809328
:1018A00005046BEC72E081EF93E0EADA6BEC72E036
:1018B00089EE93E0E5DA6BEC72E083EE93E0E0DA38
:1018C0006CEC72E087ED93E0DBDA68ED72E08DEDB1
:1018D00093E0D6CA97FB072E16F4009406D077FD46
:1018E00008D013D007FC05D03EF4909581959F4F0A
:1018F0000895709561957F4F0895EE0FFF1F881F23
:101900008BBF0790F691E02D1994AA1BBB1B51E1E8
:1019100007C0AA1FBB1FA617B70710F0A61BB70B5F
:10192000881F991F5A95A9F780959095BC01CD0104
:101930000895CF93DF938230910510F482E090E018
:10194000E0911804F091190420E030E0C0E0D0E00C
:10195000309711F14081518148175907C0F048175D
:10196000590761F482819381209719F09B838A83C0
:101970002BC0909319048093180426C021153105BB
:1019800019F04217530718F49A01BE01DF01EF0165
:101990000280F381E02DDCCF2115310509F1281BF0
:1019A000390B2430310590F412968D919C91139748
:1019B0006115710521F0FB019383828304C090932C
:1019C000190480931804FD01329644C0FD01E20F12
:1019D000F31F81939193225031092D933C933AC088
:1019E0002091160430911704232B41F42091020218
:1019F00030910302309317042093160420910002C3
:101A0000309101022115310541F42DB73EB74091C7
:101A1000040250910502241B350BE0911604F0914D
:101A20001704E217F307A0F42E1B3F0B2817390702
:101A300078F0AC014E5F5F4F2417350748F04E0F2A
:101A40005F1F50931704409316048193919302C033
:101A5000E0E0F0E0CF01DF91CF9108950F931F9365
:101A6000CF93DF93009709F48CC0FC013297138267
:101A7000128200911804109119040115110581F4C6
:101A800020813181820F931F209116043091170419
:101A90002817390779F5F0931704E093160471C0FD
:101AA000D80140E050E0AE17BF0750F412962D91D8
:101AB0003C911397AD012115310509F1D901F3CFFF
:101AC0009D01DA013383228360817181860F971F24
:101AD0008217930769F4EC0128813981260F371F9B
:101AE0002E5F3F4F318320838A819B819383828342
:101AF000452B29F4F0931904E093180442C013967F
:101B0000FC93EE931297ED01499159919E01240F98
:101B1000351FE217F30771F480819181840F951FBF
:101B2000029611969C938E938281938113969C9337
:101B30008E931297E0E0F0E0D80112968D919C917F
:101B40001397009719F0F8018C01F6CF8D919C91B5
:101B500098012E5F3F4F820F931F20911604309102
:101B600017042817390769F4309729F410921904DB
:101B70001092180402C0138212821093170400936B
:101B80001604DF91CF911F910F9108956F927F926C
:101B90008F929F92AF92BF92CF92DF92EF92FF927D
:101BA0000F931F93CF93DF93EC01009781F4CB0148
:101BB000DF91CF911F910F91FF90EF90DF90CF9029
:101BC000BF90AF909F908F907F906F90B2CEFC01AE
:101BD000E60FF71F9C0122503109E217F30708F4C2
:101BE000A8C0D9010D911C91119706171707A8F0ED
:101BF0000530110508F49BC0C801049786179707A4
:101C000008F495C002501109061B170B019311939C
:101C10006D937C93CF0122DF8AC05B01A01AB10AC9
:101C20004C01800E911EA0911804B091190440E05F
:101C300050E0E12CF12C109709F44AC0A815B90521
:101C4000D1F56D907C901197630182E0C80ED11C94
:101C5000CA14DB0480F1A3014A195B096A0182E01E
:101C6000C80ED11C1296BC9012971396AC91B5E099
:101C7000CB16D10440F0B282A38351834083D901B3
:101C80006D937C930AC00E5F1F4FC301800F911F9D
:101C9000F90191838083EB2DFA2FE114F10431F0E7
:101CA000D7011396FC93EE93129741C0F093190459
:101CB000E09318043CC08D919C91119748175907E7
:101CC00008F4AC017D0112960D90BC91A02DB3CF0C
:101CD000809116049091170488159905E1F4461730
:101CE0005707C8F48091000290910102009741F4D7
:101CF0008DB79EB74091040250910502841B950B4D
:101D0000E817F907B0F4F0931704E0931604F9010B
:101D1000718360830CC0CB010CDE7C01009749F01D
:101D2000A801BE011BD0CE0199DEC70104C0CE01BF
:101D300002C080E090E0DF91CF911F910F91FF9062
:101D4000EF90DF90CF90BF90AF909F908F907F905B
:101D50006F90089581E090E0F894B0C1FB01DC0140
:101D600002C001900D9241505040D8F70895FB01F8
:101D7000DC018D91019080190110D9F3990B089520
:101D8000FB01DC0101900D920020E1F70895FB01B9
:101D900051915523A9F0BF01DC014D914517411127
:101DA000E1F759F4CD010190002049F04D91401523
:101DB0004111C9F3FB014111EFCF81E090E00197A0
:101DC00008952F923F924F925F926F927F928F92DF
:101DD0009F92AF92BF92CF92DF92EF92FF920F93BA
:101DE0001F93CF93DF935C016B017A01611571053D
:101DF00019F0FB0191838083E114F10429F0C701FC
:101E00000297839708F0EEC0E5012196F501108155
:101E1000812F90E0FED0892B11F05E01F5CF1D32AD
:101E200029F42196F501118101E007C01B3221F44C
:101E3000E5012296F501118100E0E114F10459F168
:101E4000F0E1EF16F10461F41033E1F488818F7D45
:101E5000883569F519812296026070E1E72EF12C30
:101E600088E0E816F10439F12CF4F2E0EF16F10401
:101E7000C1F12AC08AE0E816F10479F0E0E1EE163B
:101E8000F10411F550E1E52EF12C812C912CA12CBF
:101E900068E0B62E2BC01033C9F23AE0E32EF12CE5
:101EA0004CEC842E982CA82C4CE0B42E1FC010E3D0
:101EB000E114F104A9F698E0E92EF12C812C912C83
:101EC000A12C20E1B22E12C060E070E080E090E82A
:101ED00097010F2C000C440B550BB5D049015A014A
:101EE00005C0812C912CA12C80E4B82E60E020E06C
:101EF00030E0A90127010F2C000C660877081E01AD
:101F0000E0EDE10FEA3060F08FEB810F8A3110F4E1
:101F1000E9EC05C08FE9810F8A3120F5E9EAE10F8C
:101F20008E2F90E08E159F05ECF467FD17C082168A
:101F30009306A406B50688F0C301B20175D09B01D3
:101F4000AC012E0F311D411D511D213031054105C0
:101F5000F0E85F0710F461E001C06FEF2196F10136
:101F60001081CDCF802F8170C114D10471F0662310
:101F700029F02197F601D183C08307C001FF19C062
:101F80002297F601D183C08314C067FF12C081116C
:101F900005C02FEF3FEF4FEF5FE704C020E030E0D8
:101FA00040E050E882E290E090931B0480931A0492
:101FB00016C0882341F050954095309521953F4FAC
:101FC0004F4F5F4F0CC057FF0AC082E290E09093E2
:101FD0001B0480931A042FEF3FEF4FEF5FE7B90127
:101FE000CA0104C060E070E080E090E0DF91CF9132
:101FF0001F910F91FF90EF90DF90CF90BF90AF9027
:102000009F908F907F906F905F904F903F902F9018
:102010000895911106C0803219F089508550D0F78B
:102020000895992788270895DB018F939F932DD0DA
:10203000BF91AF91A29F800D911DA39F900DB29F64
:10204000900D11240895A1E21A2EAA1BBB1BFD01BD
:102050000DC0AA1FBB1FEE1FFF1FA217B307E40787
:10206000F50720F0A21BB30BE40BF50B661F771FDF
:10207000881F991F1A9469F76095709580959095BF
:102080009B01AC01BD01CF01089509D0A59F900D22
:10209000B49F900DA49F800D911D11240895A29FBF
:1020A000B001B39FC001A39F700D811D1124911D2C
:1020B000B29F700D811D1124911D089511E0CAE297
:1020C000D1E000E005C0802FFE0117DC2196011D44
:0E20D000CB32D10780E00807B1F7F894FFCFBC
:1020DE0000001C04800000000000E0015C01AA0169
:1020EE0088019C01260200000000BD025C01110364
:1020FE002803A402BC027365747570003034334437
:10210E00303433303034343730343330303434329A
:10211E00303434433030323030343346303433455B
:10212E00303433423034333830343332303032306E
:10213E00303037303030373530303644303037305D
:10214E00303032303030364630303645006C6F6FBE
:10215E0070002B434D47523A00222C22006E756DB3
:10216E00626572536D733A200074657874536D73A3
:10217E003A200070756D70206F6E0050554D5020D6
:10218E004F6E21004E6F74207472757374656420E7
:10219E006E756D6265723A20000D0A003739363160
:1021AE0037363338363730003739303638353737FB
:0C21BE00313434004F4B004552000D003E
:00000001FF
